{
  "_format": "hh-sol-artifact-1",
  "contractName": "DonationsContract",
  "sourceName": "contracts/DonationsContract.sol",
  "abi": [
    {
      "inputs": [],
      "stateMutability": "payable",
      "type": "constructor"
    },
    {
      "inputs": [],
      "name": "donate",
      "outputs": [],
      "stateMutability": "payable",
      "type": "function"
    },
    {
      "inputs": [
        {
          "internalType": "address",
          "name": "",
          "type": "address"
        }
      ],
      "name": "donations",
      "outputs": [
        {
          "internalType": "uint256",
          "name": "",
          "type": "uint256"
        }
      ],
      "stateMutability": "view",
      "type": "function"
    },
    {
      "inputs": [],
      "name": "getDonators",
      "outputs": [
        {
          "internalType": "address[]",
          "name": "",
          "type": "address[]"
        }
      ],
      "stateMutability": "view",
      "type": "function"
    },
    {
      "inputs": [],
      "name": "owner",
      "outputs": [
        {
          "internalType": "address payable",
          "name": "",
          "type": "address"
        }
      ],
      "stateMutability": "view",
      "type": "function"
    },
    {
      "inputs": [
        {
          "internalType": "address",
          "name": "from",
          "type": "address"
        }
      ],
      "name": "totalAmount",
      "outputs": [
        {
          "internalType": "uint256",
          "name": "",
          "type": "uint256"
        }
      ],
      "stateMutability": "view",
      "type": "function"
    },
    {
      "inputs": [
        {
          "internalType": "address payable",
          "name": "to",
          "type": "address"
        },
        {
          "internalType": "uint256",
          "name": "amount",
          "type": "uint256"
        }
      ],
      "name": "withdraw",
      "outputs": [],
      "stateMutability": "payable",
      "type": "function"
    }
  ],
  "bytecode": "0x6080604052336000806101000a81548173ffffffffffffffffffffffffffffffffffffffff021916908373ffffffffffffffffffffffffffffffffffffffff160217905550610900806100536000396000f3fe6080604052600436106100555760003560e01c80638da5cb5b1461005a578063bf1482fa14610085578063cc6cb19a146100b0578063d72b9da2146100ed578063ed88c68e1461012a578063f3fef3a314610134575b600080fd5b34801561006657600080fd5b5061006f610150565b60405161007c9190610670565b60405180910390f35b34801561009157600080fd5b5061009a610174565b6040516100a7919061068b565b60405180910390f35b3480156100bc57600080fd5b506100d760048036038101906100d291906104ea565b610202565b6040516100e491906106ed565b60405180910390f35b3480156100f957600080fd5b50610114600480360381019061010f91906104ea565b61021a565b60405161012191906106ed565b60405180910390f35b610132610263565b005b61014e60048036038101906101499190610513565b610367565b005b60008054906101000a900473ffffffffffffffffffffffffffffffffffffffff1681565b606060018054806020026020016040519081016040528092919081815260200182805480156101f857602002820191906000526020600020905b8160009054906101000a900473ffffffffffffffffffffffffffffffffffffffff1673ffffffffffffffffffffffffffffffffffffffff16815260200190600101908083116101ae575b5050505050905090565b60026020528060005260406000206000915090505481565b6000600260008373ffffffffffffffffffffffffffffffffffffffff1673ffffffffffffffffffffffffffffffffffffffff168152602001908152602001600020549050919050565b6000600260003373ffffffffffffffffffffffffffffffffffffffff1673ffffffffffffffffffffffffffffffffffffffff16815260200190815260200160002054141561030f576001339080600181540180825580915050600190039060005260206000200160009091909190916101000a81548173ffffffffffffffffffffffffffffffffffffffff021916908373ffffffffffffffffffffffffffffffffffffffff1602179055505b34600260003373ffffffffffffffffffffffffffffffffffffffff1673ffffffffffffffffffffffffffffffffffffffff168152602001908152602001600020600082825461035e919061075d565b92505081905550565b60008054906101000a900473ffffffffffffffffffffffffffffffffffffffff1673ffffffffffffffffffffffffffffffffffffffff163373ffffffffffffffffffffffffffffffffffffffff16146103f5576040517f08c379a00000000000000000000000000000000000000000000000000000000081526004016103ec906106ad565b60405180910390fd5b8080471015610439576040517f08c379a0000000000000000000000000000000000000000000000000000000008152600401610430906106cd565b60405180910390fd5b60008373ffffffffffffffffffffffffffffffffffffffff168360405161045f9061065b565b60006040518083038185875af1925050503d806000811461049c576040519150601f19603f3d011682016040523d82523d6000602084013e6104a1565b606091505b5050905050505050565b6000813590506104ba81610885565b92915050565b6000813590506104cf8161089c565b92915050565b6000813590506104e4816108b3565b92915050565b6000602082840312156104fc57600080fd5b600061050a848285016104ab565b91505092915050565b6000806040838503121561052657600080fd5b6000610534858286016104c0565b9250506020610545858286016104d5565b9150509250929050565b600061055b8383610576565b60208301905092915050565b610570816107c5565b82525050565b61057f816107b3565b82525050565b600061059082610718565b61059a8185610730565b93506105a583610708565b8060005b838110156105d65781516105bd888261054f565b97506105c883610723565b9250506001810190506105a9565b5085935050505092915050565b60006105f060168361074c565b91506105fb82610830565b602082019050919050565b6000610613600083610741565b915061061e82610859565b600082019050919050565b600061063660118361074c565b91506106418261085c565b602082019050919050565b610655816107f7565b82525050565b600061066682610606565b9150819050919050565b60006020820190506106856000830184610567565b92915050565b600060208201905081810360008301526106a58184610585565b905092915050565b600060208201905081810360008301526106c6816105e3565b9050919050565b600060208201905081810360008301526106e681610629565b9050919050565b6000602082019050610702600083018461064c565b92915050565b6000819050602082019050919050565b600081519050919050565b6000602082019050919050565b600082825260208201905092915050565b600081905092915050565b600082825260208201905092915050565b6000610768826107f7565b9150610773836107f7565b9250827fffffffffffffffffffffffffffffffffffffffffffffffffffffffffffffffff038211156107a8576107a7610801565b5b828201905092915050565b60006107be826107d7565b9050919050565b60006107d0826107d7565b9050919050565b600073ffffffffffffffffffffffffffffffffffffffff82169050919050565b6000819050919050565b7f4e487b7100000000000000000000000000000000000000000000000000000000600052601160045260246000fd5b7f4f6e6c79206f776e65722063616e20646f207468697300000000000000000000600082015250565b50565b7f4e6f7420656e6f75676820746f6b656e73000000000000000000000000000000600082015250565b61088e816107b3565b811461089957600080fd5b50565b6108a5816107c5565b81146108b057600080fd5b50565b6108bc816107f7565b81146108c757600080fd5b5056fea2646970667358221220430b32b87ac9b4104298bde804d531335e44aba53076ba1c7cd37169bb36695a64736f6c63430008040033",
  "linkReferences": {},
  "deployedLinkReferences": {}
}