{
  "_format": "hh-sol-artifact-1",
  "contractName": "DonationsContract",
  "sourceName": "contracts/DonationsContract.sol",
  "abi": [
    {
      "inputs": [],
      "stateMutability": "payable",
      "type": "constructor"
    },
    {
      "inputs": [],
      "name": "donate",
      "outputs": [],
      "stateMutability": "payable",
      "type": "function"
    },
    {
      "inputs": [],
      "name": "getDonators",
      "outputs": [
        {
          "internalType": "address[]",
          "name": "",
          "type": "address[]"
        }
      ],
      "stateMutability": "view",
      "type": "function"
    },
    {
      "inputs": [],
      "name": "owner",
      "outputs": [
        {
          "internalType": "address payable",
          "name": "",
          "type": "address"
        }
      ],
      "stateMutability": "view",
      "type": "function"
    },
    {
      "inputs": [
        {
          "internalType": "address",
          "name": "from",
          "type": "address"
        }
      ],
      "name": "totalAmount",
      "outputs": [
        {
          "internalType": "uint256",
          "name": "",
          "type": "uint256"
        }
      ],
      "stateMutability": "view",
      "type": "function"
    },
    {
      "inputs": [
        {
          "internalType": "address payable",
          "name": "to",
          "type": "address"
        },
        {
          "internalType": "uint256",
          "name": "amount",
          "type": "uint256"
        }
      ],
      "name": "withdraw",
      "outputs": [],
      "stateMutability": "payable",
      "type": "function"
    }
  ],
  "bytecode": "0x60806040526100367f84b2b6a810dc32cdcbe1a0d929a604ffc78e56f431c189fca5f2b20b9824dc5d60001b6100df60201b60201c565b6100687fde890adf560c971e69b1131c142875145d0a2cdebc543dcfd4e73b7e43e3e21160001b6100df60201b60201c565b61009a7f14cd1324a604b54345691d48e5bca8b82fa398aa2289710ba930a7d6d6c20f6d60001b6100df60201b60201c565b336000806101000a81548173ffffffffffffffffffffffffffffffffffffffff021916908373ffffffffffffffffffffffffffffffffffffffff1602179055506100e2565b50565b610f2c806100f16000396000f3fe60806040526004361061004a5760003560e01c80638da5cb5b1461004f578063bf1482fa1461007a578063d72b9da2146100a5578063ed88c68e146100e2578063f3fef3a3146100ec575b600080fd5b34801561005b57600080fd5b50610064610108565b6040516100719190610c53565b60405180910390f35b34801561008657600080fd5b5061008f61012c565b60405161009c9190610c6e565b60405180910390f35b3480156100b157600080fd5b506100cc60048036038101906100c79190610aaa565b61023e565b6040516100d99190610cf0565b60405180910390f35b6100ea61030b565b005b61010660048036038101906101019190610ad3565b6105a0565b005b60008054906101000a900473ffffffffffffffffffffffffffffffffffffffff1681565b606061015a7f98b844c5c3b7d4b5b0812c7659a4072aaccd03b3732b7ada2dc42af56dafb95f60001b610a68565b6101867fec58753b5ef2461eb3d9a76e574c3bc24d8784c6c63cd49e914930f4b28d816360001b610a68565b6101b27f9e09f050befb80bcbf845834e65f531e949c289bbbbf196f5e968ed028ce7c9960001b610a68565b600180548060200260200160405190810160405280929190818152602001828054801561023457602002820191906000526020600020905b8160009054906101000a900473ffffffffffffffffffffffffffffffffffffffff1673ffffffffffffffffffffffffffffffffffffffff16815260200190600101908083116101ea575b5050505050905090565b600061026c7fea9132e3e7bffce1276525420259878d112a1231e21139876d1942b6dd5cf9bb60001b610a68565b6102987f819c7b1beb19b88fcbaf2ac3a733fd71c5cbe8f3963e6ecaec521d98abd3c8b660001b610a68565b6102c47ff53d05e9a13855200d817c75cc8071ea077e0b34386e2a063f5096198e12637f60001b610a68565b600260008373ffffffffffffffffffffffffffffffffffffffff1673ffffffffffffffffffffffffffffffffffffffff168152602001908152602001600020549050919050565b6103377f5a5ac9dd49bb351c3bb66f53d2fcbf451532fc851940657ccba4edb10a74473360001b610a68565b6103637fd6050558efcc3ab775ae8cfa730078a6ec886e7bb440b52437c7f9264609538860001b610a68565b61038f7f151e940eb2b4f8df96c378fea0767317435da5fcb35c99b203216d86270ea55360001b610a68565b6000600260003373ffffffffffffffffffffffffffffffffffffffff1673ffffffffffffffffffffffffffffffffffffffff1681526020019081526020016000205414156104c3576104037fdcc34036097fbfa272e29fd762bd2bc62842ab770223140e4050b3eb95a5a7b760001b610a68565b61042f7f9ff7d7a9990405be2a16c5e5963df261b8ab2a9ee8d56397e656fe980652658760001b610a68565b61045b7f434c7de8d0aaa5d199e6631fef542c92dcf769a6253ae771d37f5fd7f77b022260001b610a68565b6001339080600181540180825580915050600190039060005260206000200160009091909190916101000a81548173ffffffffffffffffffffffffffffffffffffffff021916908373ffffffffffffffffffffffffffffffffffffffff1602179055506104f0565b6104ef7fede4101fe2fcda3ed5fac7982af6641256f084c259b377be52127a56718e7b5360001b610a68565b5b61051c7f26442ff160e2b9af41c75350cf340e03b8f256da0d9de3240f5fafc382972ef760001b610a68565b6105487fd63dc47fdee797ad679399a127f05ab80498d577aeb2aacdb343848d3a5fe6a260001b610a68565b34600260003373ffffffffffffffffffffffffffffffffffffffff1673ffffffffffffffffffffffffffffffffffffffff16815260200190815260200160002060008282546105979190610d60565b92505081905550565b6105cc7f4383e16e0164d5c675ddeba9f10606c3e4c4474a35a09b07a4476d22038c41b360001b610a68565b6105f87f5c6182e711ca6ee288c27bb912947451fa03abd5d75db8f5c71ac5a1f230554260001b610a68565b6106247f92b1e8dd77cc3f2604451a2fa82ce47a625e691b8dd9bb156e2aa2f81818d56b60001b610a68565b6106507f635dc51401d3293f879b6eae1511337ec78f93fc0cbd459f09bf6e2a2035450560001b610a68565b60008054906101000a900473ffffffffffffffffffffffffffffffffffffffff1673ffffffffffffffffffffffffffffffffffffffff163373ffffffffffffffffffffffffffffffffffffffff16146106de576040517f08c379a00000000000000000000000000000000000000000000000000000000081526004016106d590610cb0565b60405180910390fd5b61070a7f5fa2eb70d89d928f8348c7193ac27693a94bdce6c91378bd34eccc18e0fead7160001b610a68565b6107367ff9fb6e74728c9aff278cabc7204685350b99d48bdaa6581b37d3b7e4c739199c60001b610a68565b806107637f104c96ee98a5e5636c583df4cb0d72cf93cce0407f68db39e1462c7a93760df560001b610a68565b61078f7fc27d35e60d8753713d0c3a06287081ff60ce00722692224f99ae8cefbb12939e60001b610a68565b6107bb7f989a14ceab38b9cda32fc140b1beec32801956dc3e923a3271dfb13a5ff06f1960001b610a68565b6107e77f9d85521fa819e8640cf46455bed00917ea41e4c1eae0b6cc1415d2c82213e4b360001b610a68565b8047101561082a576040517f08c379a000000000000000000000000000000000000000000000000000000000815260040161082190610cd0565b60405180910390fd5b6108567f54aa2596653b97baa597224b944b31a30de1b9813e8502740d49dcd9675ddec860001b610a68565b6108827f3cbdfc176b76d615792c8a269ec294742f0c585aeea81d6a2cefe5256907064060001b610a68565b6108ae7f0d7a376833fc8d5b0544b9a92652ec2c2ad20b02333e72e089f2f0051324a82560001b610a68565b6108da7fe0d6d84d9f9a852c4217a323a6b39a9fa9fc68824890199f293e9475b450a63660001b610a68565b6109067f4abf797c2cc036336abbe2194e3c5dd028acce5dd480326b175da4d495e0d52a60001b610a68565b60008373ffffffffffffffffffffffffffffffffffffffff168360405161092c90610c3e565b60006040518083038185875af1925050503d8060008114610969576040519150601f19603f3d011682016040523d82523d6000602084013e61096e565b606091505b5050905061099e7fa34c8cd42f389cef66dddaefcc2b97a24756da2b0236743a6c9cecb5f4fd094660001b610a68565b6109ca7f570d52c533c2c01f2441f15d3fbcc75bb83efd6bd9021d2be64fbcfcfd80d7b660001b610a68565b6109f67f627c5e7d300a764d95d303b18bf3e73d96568e7c6aa9547845df0da7fc57eb4d60001b610a68565b80610a36576040517f08c379a0000000000000000000000000000000000000000000000000000000008152600401610a2d90610c90565b60405180910390fd5b610a627ffe45cf51a3c138f48cd752fff4a9d54335a6b164d963c3ba818b7c1c61a6317b60001b610a68565b50505050565b50565b600081359050610a7a81610eb1565b92915050565b600081359050610a8f81610ec8565b92915050565b600081359050610aa481610edf565b92915050565b600060208284031215610abc57600080fd5b6000610aca84828501610a6b565b91505092915050565b60008060408385031215610ae657600080fd5b6000610af485828601610a80565b9250506020610b0585828601610a95565b9150509250929050565b6000610b1b8383610b36565b60208301905092915050565b610b3081610dc8565b82525050565b610b3f81610db6565b82525050565b6000610b5082610d1b565b610b5a8185610d33565b9350610b6583610d0b565b8060005b83811015610b96578151610b7d8882610b0f565b9750610b8883610d26565b925050600181019050610b69565b5085935050505092915050565b6000610bb0601883610d4f565b9150610bbb82610e33565b602082019050919050565b6000610bd3601683610d4f565b9150610bde82610e5c565b602082019050919050565b6000610bf6600083610d44565b9150610c0182610e85565b600082019050919050565b6000610c19601183610d4f565b9150610c2482610e88565b602082019050919050565b610c3881610dfa565b82525050565b6000610c4982610be9565b9150819050919050565b6000602082019050610c686000830184610b27565b92915050565b60006020820190508181036000830152610c888184610b45565b905092915050565b60006020820190508181036000830152610ca981610ba3565b9050919050565b60006020820190508181036000830152610cc981610bc6565b9050919050565b60006020820190508181036000830152610ce981610c0c565b9050919050565b6000602082019050610d056000830184610c2f565b92915050565b6000819050602082019050919050565b600081519050919050565b6000602082019050919050565b600082825260208201905092915050565b600081905092915050565b600082825260208201905092915050565b6000610d6b82610dfa565b9150610d7683610dfa565b9250827fffffffffffffffffffffffffffffffffffffffffffffffffffffffffffffffff03821115610dab57610daa610e04565b5b828201905092915050565b6000610dc182610dda565b9050919050565b6000610dd382610dda565b9050919050565b600073ffffffffffffffffffffffffffffffffffffffff82169050919050565b6000819050919050565b7f4e487b7100000000000000000000000000000000000000000000000000000000600052601160045260246000fd5b7f4661696c656420746f207472616e736665722045746865720000000000000000600082015250565b7f4f6e6c79206f776e65722063616e20646f207468697300000000000000000000600082015250565b50565b7f4e6f7420656e6f75676820746f6b656e73000000000000000000000000000000600082015250565b610eba81610db6565b8114610ec557600080fd5b50565b610ed181610dc8565b8114610edc57600080fd5b50565b610ee881610dfa565b8114610ef357600080fd5b5056fea2646970667358221220b0c36cc6cfa4027abae40890f473d9b56176d6538dd3aecd4276623e914387a964736f6c63430008040033",
  "linkReferences": {},
  "deployedLinkReferences": {}
}